:1000000053C000006DC000006BC0000069C000005C
:1000100067C0000065C0000063C0000061C0000050
:100020005FC000000C947F0D5BC0000059C0000051
:1000300057C000000C94870A53C0000051C0000054
:100040004FC000004DC000004BC0000049C0000080
:1000500047C0000045C0000043C0000041C0000090
:100060003FC000003DC000004C313620636465672E
:1000700072656734003E6733323E3E63333200734D
:100080006F6C766572004D617A65005368616E6EC3
:100090006F6E002047455200000000000000001F66
:1000A0001F1F1F1F1F1F4B0E11241FBECFEFD8E0B5
:1000B000DEBFCDBF11E0A0E0B1E0E6E5FAE202C0AC
:1000C00005900D92AE35B107D9F714E0AEE5B1E079
:1000D00001C01D92AC32B107E1F7A8D60C941F15F0
:1000E0008FCF809100018F5F809300010895AAE077
:1000F000B0E0EDE7F0E00C94C91380ED97E00E94CA
:10010000490EA7D583E990E00E942A0C61E080E0C7
:100110000E94970C8BE890E00E942A0C85E790E003
:100120000E94010B88EE93E00E94C70D0E940E0C06
:1001300086E890E00E942A0C61E080E00E94970C23
:100140008FE790E00E942A0C88EE93E00E94C70D92
:1001500080E10E947D0D81111AC030D78C010E9470
:100160000E0CB801882777FD8095982F0E94780C97
:1001700080E491E00E941B0C61E080E00E94970CFB
:1001800083E491E00E941B0C84E690E0DFCF80E1E5
:100190000E946D0D88EE93E00E94C70D0CEE1FEFDC
:1001A0000832110528F068ED7FEF88E290E004C086
:1001B00068E270E088ED9FEF0E94420D81E00E94AE
:1001C000140E84E190E00E94C70D0F5F1F4F0C33A7
:1001D000110531F760E070E080E090E00E94420D90
:1001E00080E10E947D0D811119C061E0CE01019670
:1001F0000E94180E8C010E940E0CB80180E090E065
:100200000E94780C61E080E00E94970CCE0101967C
:100210003DD584E690E00E94C70DE2CF80E10E94C8
:100220006D0D0E940E0C8BE491E00E941B0C88E681
:1002300090E00E94010B0E94E60A8111FCCF2A96F1
:10024000E4E00C94E5131092BB021092BA021092F3
:10025000BD021092BC020895E0916001F0E0E65208
:10026000FE4F10820E940E0C8AED91E00E941B0C42
:1002700080916001893040F061E080E00E94970C3D
:1002800082EE91E00C941B0C0895811106C061115F
:1002900006C0442331F082E508958CE4089583E597
:1002A000089582E40895CF93C0916001C33008F4AB
:1002B00049C02C2F30E026523E4FF9013297808101
:1002C000823409F03FC041E050E080E090E0B901A5
:1002D000FB01E41BF50BE081EC3451F0E23529F031
:1002E000E23441F48C549F4F05C0865A9F4F02C0A0
:1002F000825F9E4F4F5F5F4F4430510549F768E67C
:1003000071E00E946A138A35910589F034F4892BD3
:10031000B1F4F901339783E511C0843B910559F09D
:100320008E30914061F4F90133978CE407C0F901F4
:10033000339782E503C0F901339782E48083C2508A
:10034000C0936001CF910895909101019E3671F4A0
:10035000823511F48CE603C08C3421F48FE680934F
:10036000010108958234E9F483E7F9CF933741F42A
:100370008235A1F38C3471F3823499F48EE6EFCF99
:100380009C3639F4823581F38C34C1F3823449F4DC
:10039000E5CF9F3631F4823589F38C3429F38234EA
:1003A000C9F20895ABE0B0E0E8EDF1E00C94CA13B7
:1003B000A1D462E370E082E390E00E94420D82E308
:1003C00090E00E94C70D61E0CE0101960E94180ED8
:1003D00011E029813A812536310508F410E041E029
:1003E00029853A852536310508F440E068E270E059
:1003F00088E290E04B870E94420D88EC90E00E94DA
:10040000C70D61E0CE0101960E94180E2B813C8140
:100410004B85293C310560F42D813E81293C310515
:10042000A0F42F813885293C310578F460E00EC0B6
:100430002935324050F02D813E812935324028F057
:100440002F8138852935324098F461E0812F1DDFF6
:10045000182F90E0CFD480916001E82FF0E0E652B1
:10046000FE4F10838F5F809360011DDFF5DEA0CF0C
:100470002B96E3E00C94E613223529F4442361F033
:1004800081E090E00895233519F46111F9CF04C09B
:100490002C34B1F78111F4CF80E090E00895CF9330
:1004A00020915E0130915F01A091010146525E4FA3
:1004B0002115310579F4A093BE02DA014C914093E5
:1004C000BF029093C1028093C0027093C3026093F5
:1004D000C20226C0C6E0C29FF001C39FF00D1124E6
:1004E000E254FD4FA083DA014C914183A9014150B0
:1004F0005109C49FD001C59FB00D1124A254BD4F16
:1005000012964D915C911397480F591F5383428364
:1005100014968D919C911597860F971F95838483D0
:100520002F5F3F4F30935F0120935E01CF9108957D
:10053000FF920F931F93CF93DF93EC01F090010193
:100540008091600190E0C817D9070CF04CC08E0173
:1005500006521E4FD8018C91833559F480910101C8
:100560008E3611F18C3671F18F36B1F0833781F50B
:1005700021C0823559F4809101018E3619F18C36F3
:10058000C9F08F3689F0833719F506C08C3401F530
:10059000809101018E3631F4AE0160E070E08FEFA2
:1005A0009FEF15C08C3621F4AE0161E070E005C00C
:1005B0008F3631F4AE016FEF7FEF80E090E007C03F
:1005C000833731F4AE0160E070E081E090E067DFF6
:1005D000F8018081B9DEFE01EF59FE4FD8018C9100
:1005E00080832196ADCFF0920101CDB7DEB7E5E073
:1005F0000C94E413CF93C82F90910101981709F43C
:1006000050C08E3689F59C3671F48CE490E0F2D3BC
:10061000E091600181E08E0F80936001F0E0E6528E
:10062000FE4F8CE40FC0933779F482E490E0E2D37C
:10063000E091600181E08E0F80936001F0E0E6526E
:10064000FE4F82E480832BC09F3649F582E590E01F
:10065000D1D3E091600181E08E0F80936001F0E0E2
:10066000E652FE4F82E5EECF8C3639F4933769F2CD
:100670009F36D9F29E3699F4E9CF833739F49F3605
:1006800021F29E3691F29C3651F4E0CF8F3639F448
:100690009E3609F4BACF9C3641F29337B9F2C09333
:1006A0000101CF910895CF93E09160012E2F30E0AA
:1006B00030932704209326049C012E5F3F4F6091C6
:1006C0005E0170915F01F6E0F89FA001F99F500D67
:1006D000112442545D4F80E090E0C1E0CE0F0696B9
:1006E000261737076CF4F0E0E652FE4FDA01A80F48
:1006F000B91F1796AC91A0832F5F3F4FEC2FEDCF22
:10070000E0936001A9DDCF9108951F93CF93DF930C
:10071000182F20915E0130915F014091BA025091F3
:10072000BB026091BC027091BD02E0ECF2E0C0E05F
:10073000D0E0C217D3070CF043C0A081B181A41749
:10074000B50709F03AC0A281B381A617B707A9F58A
:10075000812F992787FD90954DD3812FF5DDCAD242
:1007600062E370E082E390E00E94420D82E390E059
:100770000E94C70D68E270E088E290E00E94420D9E
:1007800088EC90E00E94C70DE091600181E08E0F3F
:1007900080936001F0E0E652FE4F108386E08C9F6C
:1007A000F0018D9FF00D1124E254FD4F808122DF76
:1007B000CE0179DF81E090E005C021963696B9CF71
:1007C00080E090E0DF91CF911F910895833571F51E
:1007D000909101019E3639F42091BC023091BD0206
:1007E0002F5F3F4F1EC09C3639F42091BA023091E2
:1007F000BB022F5F3F4F08C09F3659F42091BA02C9
:100800003091BB02215031093093BB022093BA02D0
:1008100035C0933799F52091BC023091BD0221502B
:1008200031093093BD022093BC0228C0823559F4AF
:10083000909101019E36C9F29C3669F39F3661F2B0
:100840009337E1F4DBCF8C3459F4909101019E365B
:10085000A9F29C3609F29F36F1F2933779F4C5CFAD
:10086000823461F4909101019E36A9F29C3631F2F6
:100870009F3609F4BACF933709F4AECF46CFA4E040
:10088000B0E0E5E4F4E00C94CB13C8D780E591E048
:10089000D2D78091BA029091BB0297FF08C082E53F
:1008A00091E0C9D780E39091BA02891B01C0805DB5
:1008B0008B831C82CE010396BED784E591E0BBD723
:1008C0008091BC029091BD0297FF08C082E591E043
:1008D000B2D780E39091BC02891B01C0805D8983FF
:1008E0001A82CE010196A7D786E591E0A4D7249677
:1008F000E2E00C94E713A4E0B0E0E1E8F4E00C944B
:10090000C51360E070E080E090E00E94420D00E0DE
:1009100010E086E0D82E90E3C92E80915E01909180
:100920005F01081719070CF04BC078D780E591E0FC
:1009300082D7D09E7001D19EF00C1124C701825441
:100940009D4F7C01FC018281938197FF09C082E564
:1009500091E071D7F7018281FC2DF81B8F2F01C028
:10096000805D8B831C82CE01039665D784E591E080
:1009700062D7D09E7001D19EF00C1124C701825421
:100980009D4F7C01FC018481958197FF09C082E520
:1009900091E051D7F7018481FC2DF81B8F2F01C006
:1009A000805D89831A82CE01019645D786E591E064
:1009B00042D788EE93E00E94C70D0F5F1F4FADCF67
:1009C00000E010E0AECFA7E1B0E0E9EEF4E00C9477
:1009D000BF132EE6B22E30EDC32E37E0D32EE12C1E
:1009E000F12CB092010160E070E080E090E00E94A4
:1009F000420D88E591E0F7D580E10E947D0D8111DF
:100A000010C00E94FC0DA70196010E947D13683E54
:100A100073408105910580F38EE190E00E94C70D3F
:100A2000EBCF80E10E947D0D8111FBCF88EE93E03A
:100A30000E94C70DF3D600E010E05CD162E370E0E5
:100A400082E390E00E94420D82E390E00E94C70D95
:100A500061E0CE010B960E94180E772473948B856B
:100A60009C858536910508F4712CAA24A3948B8962
:100A70009C898536910508F4A12C68E270E088E233
:100A800090E00E94420D88EC90E00E94C70D61E06A
:100A9000CE010B960E94180E2D853E85293C31050E
:100AA00060F48F859889893C9105A8F489899A8991
:100AB000893C910580F430E00FC02935324058F070
:100AC0008F8598898935924030F029893A8929356E
:100AD000324008F086CF31E0C80186529E4F4C016B
:100AE000FC016080262D4A2D632F872D3F8BC4DCAF
:100AF0003F89892B91F0862D992787FD90957AD192
:100B0000F401808121DC8091010189831A82CE0168
:100B1000019691D60F5F1F4F90CF3F8B7FD6C801B4
:100B200007DD009360014A2D3F89632F872DADDBE0
:100B3000A82E90E05FD1E0916001F0E0E652FE4F18
:100B4000A0828A2D43DE8A2DFFDB809160018F5FBA
:100B500080936001A8DB809101018D8B1E8ACE01FC
:100B6000459669D6C7D062E370E082E390E08AD709
:100B700082E390E00E94C70D61E0CE0101960E94E1
:100B8000180E9924939489819A818536910508F4E9
:100B9000912C41E089859A858536910508F440E0DD
:100BA00068E270E088E290E04F8B6CD788EC90E0D0
:100BB000EED761E0CE0101960E94180E2B813C8198
:100BC0004F89293C310560F42D813E81293C310556
:100BD000A8F42F813885293C310580F460E00FC0EE
:100BE0002935324058F02D813E812935324030F090
:100BF0002F8138852935324008F01FCF61E0892DDB
:100C000044DBA82EE3DD892B29F000912604109106
:100C1000270413CF8A2D90E0EDD08A2D95DB8091AB
:100C200001018D8B1E8ACE01459605D6809160010B
:100C3000E82FF0E0E652FE4FA0828F5F80936001C4
:100C400032DB1DDE8FCF809102018F5F8093020126
:100C5000089560E088E990E082D561E089E990E05C
:100C60007ED562E08AE990E07AD563E08BE990E096
:100C700076D564E08CE990E072D565E08DE990E08E
:100C80006ED566E08EE990E06AD5C8C5AAE0B0E00E
:100C9000ECE4F6E00C94C5138C01D12C8AE0C82E4C
:100CA00095E6E92EF12CE9E1F1E0DE0111968C2DBB
:100CB00001900D928A95E1F7F801819191918F0150
:100CC000B7010E94561381E090E08C0F9D1F680FC2
:100CD000791FFB01808145D5D394F5E0DF12E3CF86
:100CE0002A96E8E00C94E113809103018F5F8093D2
:100CF00003010895AAE0B0E0E0E8F6E00C94BB132D
:100D0000C12CD12C7601A12CB12C50E1452E57E2FB
:100D1000552E612C712C64E1262E312C7CE3872E1C
:100D2000912C61E0CE01019683D78C01005D1740C4
:100D3000C801AA2797FDA095BA2FC80ED91EEA1E92
:100D4000FB1EC701B601A30192010E949F13B801C7
:100D50006A197B09CB01880F991F860F971F97FD92
:100D60000196FC01F595E795E20FF31FC801B1016B
:100D70000E946A13E60FF71FED33F10574F4E43CAB
:100D80008FEFF8071CF0F7FD03C009C0E4ECFFEF9C
:100D90006CE370E0CF01CC9607C0ECE3F0E0B40167
:100DA0006E1B7F0B8CE390E06DD68B819C8184362B
:100DB000910550F48D819E818436910528F48F81B0
:100DC00098858436910560F089819A81893C9105E6
:100DD00038F489859A85893C910510F45801A1CF92
:100DE0002A96E2E10C94D713809104018F5F8093DF
:100DF000040108958C3461F0823579F08234A9F4CD
:100E000060EB7FEF80E590E03DD680E991E00CC09B
:100E100060E570E080EB9FEF04C060EB7FEF80E562
:100E200090E030D688EC90E0B2C6089560D90BDA35
:100E3000B9DAC9DDECE7F0E080818F7D8083089529
:100E4000811101C0F7CF80917C00806280937C008B
:100E5000089580917C0085FB882780F90895F9DF4B
:100E6000882321F08091790090E0089580917800A6
:100E70009091790008958032A0F497E890937A00D9
:100E800090917C00662311F0906C02C09F77906473
:100E9000907E982B90937C0080917A008064809360
:100EA0007A000895A0E0B0E0E8E5F7E00C94C513FF
:100EB000EB0160E0E0DF80917A0086FDFCCF8E01DF
:100EC000C12CD12C760180917A00806480937A00C5
:100ED00080917A0086FDFCCFC2DFC80ED91EE11CCE
:100EE000F11C015011090115110569F7CE01969504
:100EF0008795C034D10538F48C0D9D1DBE010E942C
:100F00005613CB010EC0A7019601280F391F411DB2
:100F1000511DCA01B9019E0140E050E00E947D13BD
:100F2000C901CDB7DEB7E8E00C94E113CF92DF92B0
:100F3000EF92FF92A0910501B09106019C010E94E1
:100F40002B136B017C0185DF882359F0C701B601A3
:100F500061587F4F8F4F9F4F2FEF30E040E050E0C0
:100F60000AC0C701B60161507E4F8F4F9F4F2FEFD0
:100F700033E040E050E00E947D13C901FF90EF9004
:100F8000DF90CF9008958EDFD1CF1F93CF93DF9363
:100F900060DF182F4FDF6AE070E086E0F4DFEC01DD
:100FA000812F4EDFCE01880F991F8C0F9D1F019658
:100FB00096958795DF91CF911F910895E6CF08957B
:100FC00090915802E0915302F0915402992311F04C
:100FD000849101C080812FEB280F2A3110F4805EAC
:100FE0000895803249F49F012F5F3F4F30935402A0
:100FF00020935302EF2B31F708951F93CF93DF9384
:10100000DFDFC0E0D0E01AE090ED980F9A30B0F446
:101010009E01129FE001139FD00D1124C80FD11D16
:1010200087FDDA95E09780915302909154020196E2
:101030009093540280935302C3DFE6CFCE01DF9139
:10104000CF911F91089510926F0083E280938000EA
:1010500081E1809381001092820080E197E2909379
:1010600089008093880010928B0010928A00229A47
:10107000789408958F929F92AF92BF92DF92EF92F1
:10108000FF920F931F93CF93DF935C018B01D42EBC
:1010900080915502811104C081E080935502D3DF15
:1010A00010921001B7FE05C0E894B7F82AE0F22EBE
:1010B00002C0FF24F394E09081002E2D287FE22EC1
:1010C00048ECF49EC00111248A159B05E0F4E5016B
:1010D00051E1A51657E2B50610F0C0E1D7E2BE0116
:1010E0007695679580E090E06058794687469F4FF7
:1010F0004E01A12CB12CA50194010E947D13590130
:101100008E2D816024C0C8E2FC9EC02D1124D0E049
:10111000CA15DB0508F4E501BE01769567959E01C9
:1011200040E050E08AE0F81207C080E090E0605EA6
:10113000734481449F4F06C080E090E060537D4E31
:101140008C4E9F4F0E947D1359018E2D8260882EF8
:101150002AE0F21207C0CE0105966AE070E00E9414
:101160005613EB01C83E43E0D40759F09801DE0165
:101170000E942B1328EE33E040E050E00E949F13C2
:10118000890110926F0080928100B0928900A09234
:10119000880020918800309189004D2D403108F061
:1011A0004FE080E190E0841B9109A90102C05695AF
:1011B00047958A95E2F750938B0040938A001093ED
:1011C0005B0200935A0286B38FEF86BB81E0809367
:1011D0006F00DF91CF911F910F91FF90EF90DF9003
:1011E000BF90AF909F908F900895CF93DF93EB01C6
:1011F0008F3F11F0411105C040E0BE0188EE93E041
:1012000043C0813130F050EF580F503618F05FE591
:1012100001C050E0852F6CE00E944A13682F74EFE4
:10122000760390011124250F311D2C30310540F437
:10123000F901EE0FFF1FED5DFE4F2081318102C0ED
:1012400020E030E0873081F0082E02C0220F331FEB
:101250000A94E2F7823028F0C90105966AE070E04E
:101260000CC0C90190580CC0C90136E0880F991F05
:101270003A95E1F7029665E070E00E945613CB01C3
:10128000403108F04FE0BE01F5DEDF91CF910895C7
:10129000A2E0B0E0EEE4F9E00C94BD1390900F01F1
:1012A00080915702882321F060915602611117C086
:1012B00077247394B0ECAB2EBDE5BB2E1AE0612E03
:1012C00004E0802E80EDC82E87E0D82E94E0E92E31
:1012D000F12C04EF11E02FE0422E512C14C070E0ED
:1012E00040E088EE93E0C6DE109256020CC18636CE
:1012F000CCF5813609F4A3C074F58C3309F45CC0D5
:101300008E3379F493945CDE209153023091540231
:101310002F5F3F4F3093540220935302853639F7A5
:101320004FC0813209F086C080920F01D0920E0129
:10133000C0920D01F0920C01E0920B0110930A0192
:101340000093090150920801409207011092570240
:10135000A4E09A2ED8CF833689F10CF473C010E044
:1013600082E072C08D36A9F18CF4873679F15CF198
:101370008C3609F05FC041DEBC0190930C01809374
:101380000B0180910D0190910E014DC08237B1F19A
:1013900044F48F3609F04EC030DE982E80930F0152
:1013A000B2CF843771F1863709F044C026DE9093BE
:1013B000080180930701A7CF9A94A5CF10E01FC022
:1013C00010E084E041C010E085E03EC010E087E01E
:1013D0003BC0F6DD8C3619F41092570204C07092AF
:1013E00057021092560220915302309154022F5FFF
:1013F0003F4F309354022093530285CF11E080E099
:1014000023C0FBDDBC01C5010E945613669EC001CE
:10141000679E900D112490930E0180930D016091B1
:101420000B0170910C010E94561370930A01609396
:10143000090169CF109254021092530264C010E067
:1014400089E002C010E08BE0082F9CE0999E000D1F
:101450001124B6DD982F977F933261F420915302C7
:10146000309154022F5F3F4F309354022093530228
:101470000F5FEFCF8D3269F4209153023091540207
:101480002F5F3F4F3093540220935302015098DD59
:10149000F1CF6091090170910A018153883048F4BD
:1014A000E0900D01F0900E01A8DDBC01C7010E9483
:1014B00056137B01F694E79469837A8381DD698111
:1014C0007A818E3269F420915302309154022F5F59
:1014D0003F4F30935402209353026E0D7F1DEACF8D
:1014E00080915702882339F09B01369527952093E8
:1014F0005602621B710940910701112311F08FEF11
:1015000001C0802F72DE2296E0E10C94D9131F9265
:101510000F920FB60F9211242F933F934F935F9327
:101520006F937F938F939F93AF93BF93EF93FF93AB
:1015300080915A0290915B029C01215031093093B5
:101540005B0220935A02892B09F510926F00789460
:1015500080918100887F81608093810080E197E2A3
:10156000909389008093880010928B0010928A00DB
:1015700081E0809310018091530290915402892B55
:1015800029F080915902811101C082DEFF91EF9113
:10159000BF91AF919F918F917F916F915F914F918B
:1015A0003F912F910F900FBE0F901F901895809133
:1015B0001001882349F081E02091530230915402B8
:1015C000232B19F480E0089581E00895F0CF089569
:1015D00010926F009093540280935302109258021D
:1015E0001092560255CEF4CF089510926F0090934A
:1015F00054028093530281E0809358021092560265
:1016000047CEF3CF089581E090E06F9364E06A9550
:10161000F1F76F910197C9F708950F931F93CF9337
:10162000DF931AB157985A98289AC0E0D0E0EBDFC0
:101630005C9AE9DF09B15C98E6DF5C9AE4DF5C98CC
:10164000249607FF10C0AE0160E070E080915C025C
:1016500090915D02A0915E02B0915F024817590718
:101660006A077B0720F31AB9DF91CF911F910F9181
:10167000089595B1282F217030E0220F331F482F95
:10168000467068E0469FA0011124242B9D7C292BE5
:1016900025B99BB188708295807F9F77892B8BB904
:1016A0005C9AB1DF5C98AFCFA0E0B0E0EAE5FBE088
:1016B0000C94C613C82FD62EE42E8091B602811149
:1016C00004C081E08093B60251D0A7DF14B1D5B138
:1016D000FAB00BB12898DD2011F05A9A01C05A983F
:1016E00094B1926394B9579A81E0E81621F08C2F57
:1016F00082958F70BEDF8C2F8F70BBDFFAB80BB96D
:1017000014B9D5B9CDB7DEB7E7E00C94E21342E0E7
:1017100060E0CACF42E061E0C7CFA1E0B0E0E3E91A
:10172000FBE00C94C7138C01660F660F660FE12C6B
:10173000F12C8E2D860F80646983E9DFF801EE0DB0
:10174000FF1D8491E7DF8FEFE81AF80A6981E8E06E
:10175000EE16F10471F72196E6E00C94E313DDCF69
:101760000895D8CF089541E060E09ECF80E197E2F0
:10177000A0E0B0E080935C0290935D02A0935E02D3
:10178000B0935F02529A209A549A8EE190E0FFD172
:1017900083E0E9DF86E090E0FAD183E0E4DF82E0F5
:1017A00090E0F5D183E0DFDF82E090E0F0D182E0ED
:1017B000DADF82E090E0EBD188E2A9DF88E0A7DF02
:1017C00081E0A5DF86E0A3DF8CE0A1CF81E09FDF91
:1017D0008091620290916302892BF9F060E0A0E2AF
:1017E000262F30E0709111018091120190E0019755
:1017F000789FA001799F500D1124241735074CF4D0
:10180000E0916202F0916302E20FF31FA0836F5F29
:10181000E7CF10926002109261020895D7CF089529
:10182000CF93DF93EC018991882311F073DFFBCF15
:10183000DF91CF910895F4CF0895CF93DF93EC011A
:10184000FE018491882319F065DF2196F9CFDF919D
:10185000CF910895F2CF0895AAE0B0E0E1E3FCE073
:1018600094C71AE05AE0C52ED12CE12CF12C062F9A
:10187000A701960142D7CA01B9011150E1E0F0E099
:10188000EC0FFD1FE10FF11D005D2AE0629F0019C2
:1018900011240083611571058105910541F71A3006
:1018A00050F4E1E0F0E0EC0FFD1FE10FF11D80814D
:1018B00031DF1F5FF4CF2A96E8E083C7CF92DF9233
:1018C000EF92FF926B017C0197FF0AC0F094E094C5
:1018D000D094C094C11CD11CE11CF11C8DE21ADF14
:1018E000C701B601B9DFFF90EF90DF90CF90089568
:1018F000E5CF0895A5E0B0E0EFE7FCE04BC7182F77
:1019000080E8898380EC8A8384E98B8384ED8C83EF
:10191000FE01E60FF11D8181810F6D83F8DE1093CA
:1019200060026D81609361022596E3E04FC7E2CFCC
:101930000895883058F491E001C0990F8A95EAF72C
:10194000892FAAE2B0E0EBE2F0E021C08E3060F433
:1019500098EF980F81E001C0880F9A95EAF7A4E20A
:10196000B0E0E5E2F0E013C0853160F492EF980F4B
:1019700081E001C0880F9A95EAF7A7E2B0E0E8E2BB
:10198000F0E005C080E0A0E0B0E0E0E0F0E06F3F14
:1019900019F49081982709C0662319F09081982B3B
:1019A00004C02081982F9095922390839C91982B2E
:1019B0009C93089583EF8093B00084BD82E0809370
:1019C000B10085BD1092B4001092B30018BC17BCD2
:1019D00060E086E0AEDF60E085E0ABDF60E08BE0FA
:1019E000A8DF60E083E0A5CF8091B702811104C039
:1019F00081E08093B702DECF0895CF93DF93EC01AF
:101A0000F3DFD7FF05C0D195C195D10981E001C0B1
:101A100080E0CF3FD10519F014F0CFEFD0E088235C
:101A200019F018BCC7BD02C0C8BD17BCDF91CF916B
:101A30000895CF93DF93EC01D7DFD7FF05C0D19591
:101A4000C195D10981E001C080E0CF3FD10519F0F7
:101A500014F0CFEFD0E0882329F01092B400C093A7
:101A6000B30004C0C093B4001092B300DF91CF91D3
:101A70000895CF93DF93EB01C0DFCE01DADFDF9172
:101A8000CF910895F6CF089584B18D7C84B985B146
:101A9000826385B985E090E06F9364E06A95F1F721
:101AA0006F910197C9F708958091B802811104C020
:101AB00081E08093B802E8CF0895CF93C82FF4DF78
:101AC00083B18C23E9F38AE090E061D083B18C2369
:101AD000B9F383B18C23CF910895EFCF0895A1E09E
:101AE000B0E0E4E7FDE057C68983DEDF93B190956F
:101AF000898189232196E2E06AC6F1CF08952F9269
:101B00008F939F932FB680916B0290916C020196F8
:101B100080936B0290936C0290E080916D02891F1C
:101B200080936D02909165029C5F90936502809115
:101B3000640280519742C0F09093650280936402E2
:101B4000809166029091670201968093660290935D
:101B5000670290E080916802891F809368028091FB
:101B60006902891F809369022FBE9F918F912F90E8
:101B7000189528EE33E0019748F0F9016F9364E07F
:101B80006A95F1F76F913197C9F7F5CF0895F1CFC5
:101B90000895E0E7F0E080818E7F8083A0EBB0E0E5
:101BA0008C9183608C93A1EBB0E08C91807F8C93BF
:101BB0008C9182608C93B89A8081816080837894C4
:101BC00008958091B902811104C081E08093B90227
:101BD000E0CF0895F6DFE0E7F0E080818E7F80833C
:101BE000609166027091670280916802909169022B
:101BF0002081216020830895EDCF0895E2DFE0E7A2
:101C0000F0E080818E7F80831092660210926702DE
:101C1000109268021092690210926502109264029A
:101C20008081816080830895682F8EE692E0BFC333
:101C3000462F20E0BC018EE692E083C40F93CF9341
:101C4000DF9300D000D01F92CDB7DEB79C0185E0B6
:101C5000EBE3F1E0DE01119601900D928A95E1F738
:101C6000662311F00FEF01C003E145E0BE016F5F95
:101C70007F4F8EE692E0A8D08EE692E07ED0BEDF67
:101C80000F900F900F900F900F90DF91CF910F91C9
:101C9000089560E0D3CF8EE692E0C3C46F9364E012
:101CA0006A95F1F76F910197C9F70895FC011182C8
:101CB000108213821282158214821682683068F4B0
:101CC00089E290E0918380838BE290E0938382832A
:101CD0008AE290E0958384831FC06E3070F483E2C3
:101CE00090E09183808385E290E09383828384E215
:101CF00090E09583848368500FC0653198F486E244
:101D000090E09183808388E290E09383828387E2EE
:101D100090E0958384836E5081E001C0880F6A95BE
:101D2000EAF786830895A7E0B0E0E8E9FEE031C570
:101D30008C01FC011182108213821282158214829E
:101D400017821682613118F080E1808702C0FC01A1
:101D50006087F801208B642FCE010196A7DF8F8169
:101D6000F80181878B819C81938782878D819E81F9
:101D7000958784872796E4E028C5FC01A485B5856E
:101D8000109771F08C919185892B8C93A285B385E6
:101D90009C918185809589238C9388EC90E07ECFFF
:101DA0000895FC01A485B585109769F08C91918503
:101DB000892B8C93A285B3858C919185892B8C93EB
:101DC00088EC90E06BCF0895A7E0B0E0E9EEFEE08C
:101DD000D5C47C014B01642F3901402F20E0A3DFE3
:101DE00087010F5B1F4FF80110826701F2E4CF0EED
:101DF000D11CF60110825701F3E4AF0EB11CF501BE
:101E00001082F70177866686512CF7018085581677
:101E100048F5652C712CF401E60DF71D6081CE01AB
:101E2000019644DF2F81F701E60DF71D218B898193
:101E30009A81F301EE0FFF1FEE0DFF1D92A381A308
:101E40008332910511F4F80108C08632910511F42E
:101E5000F60103C0899721F4F5018081822B8083EC
:101E60005394D3CF2796EFE0A5C4A0E0B0E0EAE317
:101E7000FFE086C4EC015B016C0181E4C80ED11C5B
:101E8000F60180807E01F2E4EF0EF11CF701708014
:101E90008E010D5B1F4FF801908080E098858917B7
:101EA00048F4F501E80FF11DE80FF11D11821082D1
:101EB0008F5FF4CF84B1F6019081892B84B987B10B
:101EC000F7019081892B87B98AB1F8019081892B1C
:101ED0008AB985B1F6019081892B85B988B1F7015E
:101EE0009081892B88B98BB1F8019081892B8BB9AE
:101EF0008AE090E0D3DE94B1F60180818095892359
:101F000084B997B1F70180818095892387B99AB107
:101F1000F8018081809589238AB995B1F601808185
:101F20008095892385B998B1F701808180958923AF
:101F300088B99BB1F8018081809589238BB9E090A5
:101F4000B000D090B1008091B00083608093B00069
:101F500082E08093B1004091B20080E090E02E8555
:101F60003F858217930720F5C090B2002C2D241BCB
:101F7000820F911D03B1081132C0F6B0F7102FC0C7
:101F800029B129112CC010C0212F30E0A901440F24
:101F9000551FF501E40FF51F60817181672B21F159
:101FA0001F5F2885121780F37F2C802E4C2DD7CFF2
:101FB000E092B000D092B10020E08885281730F57B
:101FC000F501E20FF11DE20FF11D80819181892B56
:101FD00021F48E859F85918380832F5FEECF03B19F
:101FE000F6B099B010E0DDCFDE01A40FB51F9196D9
:101FF0000D90BC91A02D4C91DE01A20FB31F519604
:102000002C91422369F691838083CACFCDB7DEB786
:10201000EDE0D2C3EF92FF920F931F93CF93DF9324
:10202000FC019B01F0907C0000917A0047B118B14F
:1020300080917A0086FDFCCF80E09085891748F476
:10204000D901A80FB11DA80FB11D1D921C928F5F61
:10205000F4CF97B182A18095892387B998B182A1E5
:102060008095892388B987E880937A00E12C81A143
:10207000E81610F0E12C29C050E08085581718F5BB
:10208000A52FB0E0EF01CA0FDB1F89898064809320
:102090007C0080917A00806480937A0080917A003D
:1020A00086FDFCCF6091780070917900AA0FBB1F6C
:1020B000A20FB31F8D919C911197860F971F8D933F
:1020C0009C935F5FDACFE394D2CF8085E81698F4D3
:1020D000E901CE0DD11DCE0DD11D61A170E0CB0166
:1020E00095958795A881B9818A0F9B1FDFD2798347
:1020F0006883E394EACFF0927C0000937A0018B9E9
:1021000047B9CDB7DEB7E6E05EC3A0E2B0E0EAE8EB
:10211000F0E13CC38C017B01D42E8FEF840F823021
:1021200010F4C8013EDED80150968C91B7018111A0
:102130000DC0C8019ADEC80120DEB2E0DB1236C055
:10214000BE016F5F7F4FC80190DE0CC0C80162DF27
:10215000C80113DEE2E0DE1229C0BE016F5F7F4FCF
:10216000C80158DF40E0F80180854817F8F4842F53
:1021700090E0880F991FF701E80FF91F21E030E088
:102180002C0F3D1F820F931FD8011E962D913C915D
:102190001F97DC018D919C91281B390B80819181C7
:1021A000820F931F918380834F5FDDCFA096E7E07E
:1021B00009C32F923F925F926F927F928F929F926C
:1021C000AF92BF92CF92DF92EF92FF920F931F9345
:1021D000CF93DF93CDB7DEB7C056D1090FB6F894D1
:1021E000DEBF0FBECDBF8C014B015A01522EDA016A
:1021F0008D919C91892B31F0F40180819181892B03
:10220000E9F423C0D80118968C9190E0880F991FAB
:10221000EFD2F50191838083009709F4AFC0FC01F0
:1022200020E030E0D80118968C9190E0281739070B
:102230001CF7119211922F5F3F4FF4CFE12CF12C3C
:102240006E01B1E2CB0ED11C20C0F801808590E078
:10225000880F991FCDD2D4018D939C93009709F4D8
:102260008DC0FC0120E030E0D80118968C9190E000
:10227000281739071CF7D8011E968D919C911F973E
:10228000819391932F5F3F4FEFCF452DBE016F5B41
:102290007F4FC8013ADFF8016084712CFE01EF5BCB
:1022A000FF4FC6019E012F5F3F4F190120E030E034
:1022B000261537054CF5E114F10489F0DC016D9128
:1022C0007C91408151816417750748F0D1016D916F
:1022D0007C91408151814617570748F00DC04081DD
:1022E0005181DC014D935C93E114F10479F7408155
:1022F0005181D1014D935C932F5F3F4FB2E02B0E84
:10230000311C32960296D4CFEFEFEE1AFE0AFAE0B5
:10231000EF16F10409F0B9CF9E012F5F3F4F79010D
:10232000360180E090E0F801208530E082179307C5
:102330002CF5D7012D913D917D01B3016C197D09DB
:10234000D501ED91FC91E60FF71F408151814217B5
:10235000530710F431832083F301219131913F0120
:10236000D401ED91FC91E60FF71F408151812417B4
:10237000350710F4318320830196D5CFC05ADF4F43
:102380000FB6F894DEBF0FBECDBFDF91CF911F9186
:102390000F91FF90EF90DF90CF90BF90AF909F9004
:1023A0008F907F906F905F903F902F9008951F9334
:1023B000CF93DF93EC01162F8FEF860F823018F04A
:1023C000662351F012C021E0AE014E5F5F4FBE01A7
:1023D000CE01EFDE123049F4AE014A5F5F4FBE011D
:1023E0006C5F7F4F20E0CE01E4DEDF91CF911F9143
:1023F0000895A0E0B0E0EEEFF1E1C6C1EC018B0181
:10240000B42E842F8D7F51F48C819D81892B09F40A
:1024100094C08E819F81892B09F48FC08FEF8B0D23
:10242000823050F488819981892B09F486C08A8191
:102430009B81892B09F481C04B2DB801CE0165DE4B
:10244000780100E010E0C12CD12C888590E0C816FE
:10245000D9060CF072C081E0B8120AC0EA81FB8193
:10246000E00FF11F0190F081E02DA881B9810DC02E
:102470008C819D812E813F81B1100CC0F901E00F4C
:10248000F11F0190F081E02DDC01A00FB11F8D91B3
:102490009C9128C0FC01E00FF11F40815181E8812F
:1024A000F981E00FF11F80819181EE85FF8548174A
:1024B000590710F4CF0104C08E0F9F1F841B950B8A
:1024C000D901A00FB11F2D913C91AA81BB81A00F12
:1024D000B11F4D915C912417350720F0E40FF51FD3
:1024E000E21BF30BE81BF90B99F0D7012D913C91FE
:1024F00040E050E0281B390B41095109A8EEB3E038
:10250000B9D09F0140E050E01AD137FD0AC002C0A7
:1025100020E030E0293EB3E03B072CF028EE33E02A
:1025200002C020E030E0F701219331937F01FFEFFB
:10253000CF1ADF0A0E5F1F4F88CFCDB7DEB7E9E0B5
:102540003FC1A0E0B0E0E6EAF2E115C1EC018B0189
:10255000822E4FDF2884E801412C512C320100E00B
:1025600010E0C12CD12C7601312C912C58EEA52EE7
:1025700053E0B52E921419F1E991F991882021F0D8
:10258000C5018E1B9F0BFC01E93CF10524F4E333EC
:10259000F1056CF002C033243394DF01A3019201F2
:1025A00073D0C60ED71EE81EF91E0E0F1F1F939480
:1025B00098EE490E93E0591E611C711CDBCF31105F
:1025C0001EC0492D50E04150510924EF31E0429F97
:1025D000C001439F900D529F900D11242091B20293
:1025E0003091B30228173907ACF088EE93E0489F8A
:1025F0009001499F300D589F300D11240DC0980156
:1026000040E050E0C701B60178D03093B302209388
:10261000B20202C020E030E0C901CDB7DEB7E2E18E
:10262000C6C0CF93DF93EC018A819B81009709F0AC
:1026300077D18E819F81009709F072D1888199812D
:10264000009709F06DD18C819D81009709F068D1C8
:10265000DF91CF910895A29FB001B39FC001A39FC6
:10266000700D811D1124911DB29F700D811D1124CB
:10267000911D0895F0DFA59F900DB49F900DA49F2C
:10268000800D911D11240895B7FFF4CFF3DF821B55
:10269000930B0895991B79E004C0991F961708F0D1
:1026A000961B881F7A95C9F780950895AA1BBB1BB6
:1026B00051E107C0AA1FBB1FA617B70710F0A61B42
:1026C000B70B881F991F5A95A9F780959095BC0163
:1026D000CD01089597FB072E16F4009406D077FDE0
:1026E00008D0E4DF07FC05D03EF4909581959F4F1C
:1026F0000895709561957F4F0895A1E21A2EAA1B47
:10270000BB1BFD010DC0AA1FBB1FEE1FFF1FA217A1
:10271000B307E407F50720F0A21BB30BE40BF50B9E
:10272000661F771F881F991F1A9469F76095709527
:10273000809590959B01AC01BD01CF010895052EB8
:1027400097FB16F400940FD057FD05D0D6DF07FC99
:1027500002D046F408C050954095309521953F4FE2
:102760004F4F5F4F089590958095709561957F4F7D
:102770008F4F9F4F08952F923F924F925F926F928B
:102780007F928F929F92AF92BF92CF92DF92EF9201
:10279000FF920F931F93CF93DF93CDB7DEB7CA1B82
:1027A000DB0B0FB6F894DEBF0FBECDBF09942A88AD
:1027B000398848885F846E847D848C849B84AA8455
:1027C000B984C884DF80EE80FD800C811B81AA81E2
:1027D000B981CE0FD11D0FB6F894DEBF0FBECDBFAD
:1027E000ED010895EE0FFF1F0590F491E02D09947F
:1027F000CF93DF938230910510F482E090E0E09176
:102800002A04F0912B0420E030E0A0E0B0E0309703
:1028100039F14081518148175907B8F048175907D5
:1028200071F482819381109729F013969C938E9373
:1028300012972CC090932B0480932A0427C0211553
:10284000310531F04217530718F0A901DB0101C02F
:10285000EF019A01BD01DF010280F381E02DD7CFA6
:1028600021153105F9F0281B390B2430310580F48E
:102870008A819B816115710521F0FB01938382831D
:1028800004C090932B0480932A04FE01329644C026
:10289000FE01E20FF31F8193919322503109398396
:1028A00028833AC02091280430912904232B41F435
:1028B00020911501309116013093290420932804AA
:1028C00020911301309114012115310541F42DB7E8
:1028D0003EB74091170150911801241B350BE09130
:1028E0002804F0912904E217F307A0F42E1B3F0BF4
:1028F0002817390778F0AC014E5F5F4F2417350772
:1029000048F04E0F5F1F5093290440932804819391
:10291000919302C0E0E0F0E0CF01DF91CF91089504
:10292000CF93DF93009709F487C0FC01329713829D
:102930001282C0912A04D0912B04209781F4208127
:102940003181280F391F8091280490912904821722
:10295000930779F5F0932904E09328046DC0DE0114
:1029600020E030E0AE17BF0750F412964D915C9115
:1029700013979D014115510509F1DA01F3CFB38396
:10298000A28340815181840F951F8A179B0771F4A0
:102990008D919C911197840F951F0296918380834E
:1029A00012968D919C911397938382832115310503
:1029B00029F4F0932B04E0932A043EC0D901139626
:1029C000FC93EE9312974D915D91A40FB51FEA17FA
:1029D000FB0779F480819181840F951F0296D901BC
:1029E00011969C938E938281938113969C938E93E0
:1029F0001297E0E0F0E08A819B81009719F0FE01D8
:102A0000EC01F9CFCE01029628813981820F931F04
:102A100020912804309129042817390769F4309748
:102A200029F410922B0410922A0402C013821282FD
:102A3000D0932904C0932804DF91CF91089510E02A
:102A4000C6EAD0E003C0FE01CFDE2296C83AD10725
:062A5000D1F7F894FFCF5E
:102A5600016E01010188130F00F4010400D0070480
:102A660001080200002C04200020000001020304DB
:102A76000506FF9C01B501CF01EA010702260247C0
:102A86000269028E02B502DE020A030E0F1011124F
:102A96006D560050726573732042004745522100FF
:0E2AA60028002D002C0029003E3E6133320036
:00000001FF
